:100000000C945A000C9475000C9475000C947500B7
:100010000C9475000C9475000C9475000C9475008C
:100020000C9475000C9475000C9475000C9475007C
:100030000C9475000C9475000C9475000C9475006C
:100040000C94AE000C9475000C9490020C94750006
:100050000C9475000C9475000C9475000C9475004C
:100060000C9475000C94750000000007000201005C
:100070000003040600000000000000000102040864
:100080001020408001020408102001020408102002
:10009000040404040404040402020202020203032E
:1000A000030303030000232629000025282B00005A
:1000B00024272A0011241FBECFEFD4E0DEBFCDBF1E
:1000C00011E0A0E0B1E0ECE0F8E002C005900D9294
:1000D000A430B107D9F711E0A4E0B1E001C01D924E
:1000E000AE38B107E1F70C94A3000C94000060E86F
:1000F00075E280E090E00E94160261E080910201CA
:100100000E94640160E0809100010E9464010895F2
:10011000809100010E948201909305018093040167
:10012000892B29F460E0809102010E94CB0180912B
:10013000040190910501019729F461E08091020189
:100140000E94CB010895CFEFD4E0DEBFCDBF0E9467
:100150001A010E9477000E948800FDCF1F920F9223
:100160000FB60F9211248F939F93AF93BF938091FB
:100170000A0190910B01A0910C01B0910D01019623
:10018000A11DB11D80930A0190930B01A0930C0156
:10019000B0930D01BF91AF919F918F910F900FBEC2
:1001A0000F901F90189560910A0170910B0180913A
:1001B0000C0190910D0127E0660F771F881F991F92
:1001C0002A95D1F72DE730E040E050E00E94B503DA
:1001D000CA01B9010895AF92BF92CF92DF92EF9218
:1001E000FF920F931F935B016C010E94D3007B0170
:1001F0008C010E94D3006E197F09800B910B6A1548
:100200007B058C059D05A8F31F910F91FF90EF9042
:10021000DF90CF90BF90AF900895019751F0880F75
:10022000991F880F991F02972FB7F8940197F1F73C
:100230002FBF0895789410920A0110920B0110922A
:100240000C0110920D0184B5826084BD84B581607B
:1002500084BD85B5826085BD85B5816085BDEEE6CE
:10026000F0E0808181608083E1E8F0E0808182605D
:100270008083808181608083E0E8F0E0808181601C
:100280008083E1EBF0E0808184608083E0EBF0E04C
:10029000808181608083ECE7F0E080818F778083CC
:1002A000808180648083EAE7F0E0808184608083DD
:1002B000808182608083808181608083808180688A
:1002C00080831092C1000895282F3327C9018458D4
:1002D0009F4FFC01949120573F4FF901849188234F
:1002E00081F0E82FFF27E255FF4FE491FF276623B7
:1002F00029F4808190958923808308958081892BBA
:1003000080830895482F5527CA0188599F4FFC01C3
:100310002491CA0184589F4FFC01949140575F4F2C
:10032000FA0134913323A1F1222331F1233021F456
:10033000809180008F7705C0243031F48091800057
:100340008F7D8093800018C0213019F484B58F7799
:1003500004C0223021F484B58F7D84BD0DC02630C9
:1003600021F48091B0008F7705C0273029F4809167
:10037000B0008F7D8093B000E32FFF27EC55FF4F37
:10038000E491FF278081892319F081E090E00895AE
:1003900080E090E00895482F5527CA0188599F4F63
:1003A000FC012491CA0184589F4FFC01949140574D
:1003B0005F4FFA0134913323C1F1222331F123300D
:1003C00021F4809180008F7705C0243031F4809132
:1003D00080008F7D8093800018C0213019F484B58F
:1003E0008F7704C0223021F484B58F7D84BD0DC089
:1003F000263021F48091B0008F7705C0273029F492
:100400008091B0008F7D8093B000E32FFF27E755E8
:10041000FF4FE491FF27662329F48081909589237B
:10042000808308958081892B80830895EF92FF92C5
:100430000F931F937B018C0122E030E040E050E0FD
:100440000E94D703205C3D4B404F5F4FCA01B9016A
:10045000A80197010E94D7032150304040405040EE
:10046000BB2757FDBA95A52F942F832F2F5F3F4FA2
:100470004F4F5F4F8093C50021502093C400E1ECA3
:10048000F0E08081806180838081886080838081CA
:10049000806880831F910F91FF90EF900895982FAF
:1004A0008091C00085FFFCCF9093C6000895809195
:1004B0000801909109012091060130910701821BEA
:1004C000930B80589F4F60E870E00E94A20308954C
:1004D0004091060150910701809108019091090116
:1004E0008417950719F48FEF9FEF0895FA01E25FE3
:1004F000FE4F2081CA01019660E870E00E94A203CD
:100500009093070180930601822F99270895809187
:1005100006019091070190930901809308010895C5
:100520001F920F920FB60F9211242F933F934F9368
:100530005F936F937F938F939F93AF93BF93EF934B
:10054000FF934091C600E0910801F0910901CF01AD
:10055000019660E870E00E94A2039C018091060170
:10056000909107012817390739F0E25FFE4F408369
:100570003093090120930801FF91EF91BF91AF9152
:100580009F918F917F916F915F914F913F912F91AB
:100590000F900FBE0F901F90189508950E944F0264
:1005A00008958AE00E94CE020895CF93DF93EC0174
:1005B00003C021960E94CE0288818823D1F7DF9163
:1005C000CF9108952F923F924F925F926F927F92B8
:1005D0008F929F92AF92BF92CF92DF92EF92FF9253
:1005E0000F931F93CF93DF93CDB7DEB7A0970FB6CE
:1005F000F894DEBF0FBECDBF6B017C0119012A014B
:10060000611571058105910521F480E30E94CE02F8
:100610004BC06624772443015E010894A11CB11CE1
:100620008501060D171DC701B601A20191010E94A7
:10063000B503F80160830894611C711C811C911C36
:10064000C701B601A20191010E94B50369017A01B7
:10065000211531054105510519F773010894E10889
:10066000F108EA0CFB1CAA24BB24650111C0F701A8
:1006700080818A3010F4805D01C0895C0E94CE02C6
:100680000894A108B108C108D1080894E108F1084C
:1006900088279927DC0186199709A809B909A8169E
:1006A000B906CA06DB0619F7A0960FB6F894DEBFA6
:1006B0000FBECDBFDF91CF911F910F91FF90EF90B3
:1006C000DF90CF90BF90AF909F908F907F906F9072
:1006D0005F904F903F902F900895EF92FF920F936D
:1006E0001F937B018C0197FF0BC08DE20E94CE020D
:1006F00010950095F094E094E11CF11C011D111D72
:100700002AE030E040E050E0C801B7010E94E20278
:100710001F910F91FF90EF90089520E130E040E0AD
:1007200050E00E94E202089528E030E040E050E00E
:100730000E94E202089522E030E040E050E00E9492
:10074000E202089597FB092E07260AD077FD04D010
:1007500049D006D000201AF4709561957F4F089516
:10076000F6F7909581959F4F0895A1E21A2EAA1B46
:10077000BB1BFD010DC0AA1FBB1FEE1FFF1FA21751
:10078000B307E407F50720F0A21BB30BE40BF50B4E
:10079000661F771F881F991F1A9469F760957095D7
:1007A000809590959B01AC01BD01CF01089597FB09
:1007B000092E05260ED057FD04D0D7DF0AD0001C25
:1007C00038F450954095309521953F4F4F4F5F4FEE
:1007D0000895F6F790958095709561957F4F8F4FAE
:1007E0009F4F0895AA1BBB1B51E107C0AA1FBB1F47
:1007F000A617B70710F0A61BB70B881F991F5A95AD
:0C080000A9F780959095BC01CD010895EA
:04080C0002000D00D9
:00000001FF
